:10000000ECC100001BC2000019C2000017C20000B2
:1000100015C2000013C2000011C200000FC2000090
:100020000DC200000BC2000009C2000007C20000A0
:1000300005C2000003C2000001C20000FFC10000B1
:10004000FDC10000FBC10000F9C10000F7C10000C4
:10005000F5C10000F3C10000F1C100000C948E1E38
:10006000EDC100000C945C220C949222E7C10000C8
:10007000E5C10000E3C10000E1C10000DFC10000F4
:10008000DDC10000DBC10000D9C10000D7C1000004
:10009000D5C10000D3C10000D1C100000C945A0AA0
:1000A000CDC10000CBC10000C9C10000C7C1000024
:1000B000C5C10000C3C10000C1C10000BFC1000034
:1000C000BDC10000BBC10000B9C10000B7C1000044
:1000D000B5C10000B3C10000B1C10000AFC1000054
:1000E000ADC10000DE1FE11FD01FD41FDA1F182092
:1000F000E51FE91FEF1FF31FF71FFD1F012005205C
:1001000018200B200F20132007634236B79BD8A777
:100110001A39685618AEBAAB558C1D3CB7CC57632C
:10012000BD6DEDFD753EF6177231BF000000803FDA
:1001300008000000BE922449123EABAAAA2ABECDF6
:10014000CCCC4C3E00000080BEABAAAAAA3E000068
:100150000000BF000000803F000000000008417860
:10016000D3BB4387D1133D190E3CC3BD4282AD2B97
:100170003E68EC8276BED98FE1A93E4C80EFFFBE8F
:1001800001C4FF7F3F000000000000436F6E656305
:100190007461646F206E6F207365727669646F722C
:1001A000205A61626269783A200000000A0B020955
:1001B0000C0D0E0807030401000000000000000001
:1001C000000000000000000000000000000000002F
:1001D00000000000000012111000000000000000EC
:1001E000000000000000000000000000000000000F
:1001F0000102102020080810204010204080020139
:10020000020108040201010204081020408080401D
:10021000201008040201800402018040201008041C
:1002200002010804020101020408102040800102BA
:100230000408102040800505050507050808080882
:10024000020202020A0A080804040404010101016E
:100250000101010103030303030303030407070769
:100260000C0C0C0C0C0C0C0C02020202060606060E
:10027000060606060B0B0B0B0B0B0B0B00002000EE
:100280002300260029002C002F003200000100006E
:1002900003010601090100002200250028002B00AF
:1002A0002E003100340002010000050108010B019D
:1002B00000002100240027002A002D003000330018
:1002C00001010000040107010A0100407A10F35AFD
:1002D00000A0724E18090010A5D4E80000E8764886
:1002E000170000E40B54020000CA9A3B000000E132
:1002F000F505000080969800000040420F000000C5
:10030000A08601000000102700000000E8030000A4
:1003100000006400000000000A000000000001006E
:10032000000000002C76D888DC674F0823DFC1DF8F
:10033000AE59E1B1B796E5E3E453C63AE651997692
:1003400096E8E6C28426EB898C9B62ED407C6FFCCC
:10035000EFBC9C9F40F2BAA56FA5F490055A2AF70E
:100360005C936B6CF9676DC11BFCE0E40D47FEF517
:1003700020E6B500D0ED902E03009435770500807F
:10038000841E080000204E0A000000C80C333333DE
:10039000330F986E12831141EF8D2114893BE6557E
:1003A00016CFFEE6DB18D1844B381BF77C1D901D61
:1003B000A4BBE424203284725E228100C9F124ECC3
:1003C000A1E53D271F027109BE0B090CAF0F8D116E
:1003D0009811E213C4225F23860211241FBECFEFBF
:1003E000D1E2DEBFCDBF00E00CBF15E0A0E0B2E07F
:1003F000EAE0F0E600E00BBF02C007900D92AC3CD3
:10040000B107D9F728E0ACECB5E001C01D92A735E3
:10041000B207E1F713E0C8EDD3E000E006C0229791
:100420000109FE010BBF0E94CC2AC43CD10780E029
:100430000807A9F70E946F230C94F42FE1CD0F93C6
:1004400000E020E040E060E087E996E00E94482379
:1004500065E872E081E996E00E9463256FEB75E044
:100460008BE896E00E9463256FEB75E085E896E0E7
:100470000E9463256FEB75E08FE796E00E9463258D
:100480006FEB75E089E796E00E9463256FEB75E0FE
:1004900083E796E00E9463256FEB75E08DE696E0BA
:1004A0000E94632503E226EA48EA60EC8DE096E0CC
:1004B0000E94482301E026EA48EA60EC87E096E0E3
:1004C0000E94482300E02FEF4FEF6FEF81E096E0AE
:1004D0000E9448230DEB20EC4DE26DEB8BEF95E095
:1004E0000E94482384EE95E00E94DE1926E04BE04E
:1004F00068E082ED95E00E94CE1C46E050E067E0A7
:1005000070E08CEC95E00F910C94EF1C8DE696E07A
:100510000E94FC2483E796E00E94FC2489E796E091
:100520000E94FC248FE796E00E94FC2485E896E078
:100530000E94FC248BE896E00E94FC2481E996E06E
:100540000C94FC24CF92DF92EF92FF920F931F93B3
:10055000CF93DF93CDB7DEB7A9970FB6F894DEBF80
:100560000FBECDBF7C018B01CE0101960E94B11060
:100570006FEB75E0CE0180960E9463256FEB75E00E
:10058000CE014A960E9463251EA21FA218A619A694
:10059000F801EE0FFF1FEC5EFD4F60817181CE010F
:1005A0000E960E946325BE01625F7F4FCE014A9680
:1005B0000E94C925CE010E960E94FC246AE375E0D4
:1005C000CE0144960E9463256FE972E0CE010E963B
:1005D0000E946325BE016C5E7F4FCE010E960E9485
:1005E000972665EA72E00E94A826BE01665E7F4FEC
:1005F0000E9497266BEA72E00E94A826B7010E942B
:10060000972663EB72E00E94A82661E976E00E94DB
:100610009726BC01CE0180960E94AC25CE010E9695
:100620000E94FC24CE0144960E94FC246091120298
:100630007091130240E550E0CE0101960E945710E0
:10064000892B09F479C0BE016A5D7F4FCE01019606
:100650000E947C116BE871E080EB97E00E94B92367
:10066000CE0186966C0100E010E0F60161916F0109
:100670004AE050E080EB97E00E9498240330110597
:1006800031F068EE73E080EB97E00E94EA230F5FA1
:100690001F4F0430110549F76AE871E080EB97E0DD
:1006A0000E94FF236BEB72E0CE010E960E94632541
:1006B000BE01665E7F4FCE010E960E94972663EEC6
:1006C00072E00E94A826B7010E949726BC0180EB29
:1006D00097E00E940F24CE010E960E94FC2465EF45
:1006E00072E0CE0101960E941F2460911402709165
:1006F0001502CE0101960E941F2467E173E0CE012E
:1007000001960E941F2466E573E0CE0101960E94C7
:10071000EA236CA17DA14AE050E0CE0101960E943F
:100720009E24CE0101960E94FC23BE01605E7F4F95
:10073000CE0101960E94DC23CE0101960E94591140
:10074000882321F0CE0101960E942211CE014A9603
:100750000E94FC24CE0180960E94FC24A9960FB62C
:10076000F894DEBF0FBECDBFDF91CF911F910F91E7
:10077000FF90EF90DF90CF9008950F931F93CF934A
:10078000DF93CDB7DEB762970FB6F894DEBF0FBE2A
:10079000CDBF26E040E855E260E070E080EB97E0F6
:1007A0000E94FA212BEB35E03A83298380910306DE
:1007B00090910406A0910506B09106068B839C8358
:1007C000AD83BE8338872F838091090690910A06F6
:1007D000A0910B06B0910C0689879A87AB87BC87DE
:1007E0003E872D8780910F0690911006A0911106EB
:1007F000B09112068F87988BA98BBA8B8E010F5FF1
:100800001F4F9E01295F3F4FAE01435F5F4F6AE07C
:1008100072E08DE697E00E94150F67E673E080EBCB
:1008200097E00E94EA236DE677E0C8010E94890FF5
:10083000B80180EB97E00E942F2463E084EE95E0FE
:100840000E949E1A81111EC064E773E080EB97E05E
:100850000E941F2466EC73E0C8010E94632563E0D8
:1008600070E0C8016FDEC8010E94FC2466EC73E0F2
:10087000C8010E94632564E070E0C80163DEC8011E
:100880000E94FC2462E085E00E9419206BEC73E07A
:10089000CE0101960E94632566E070E0CE010196CC
:1008A00051DECE0101960E94FC241092170662963A
:1008B0000FB6F894DEBF0FBECDBFDF91CF911F9171
:1008C0000F910895CF93DF9300D000D0CDB7DEB75E
:1008D00085E00E948720909311028093100220915E
:1008E00014060197F9F0213021F4809117068E311A
:1008F000B1F565E173E0CE0101960E94632566E0E3
:1009000070E0CE0101961EDECE0101960E94FC240D
:100910006DEC73E080EB97E00E941F2481E08093F0
:1009200014061DC0211104C0809117068E31B9F440
:100930006BEC73E0CE0101960E94632566E070E0E7
:10094000CE010196FFDDCE0101960E94FC246BEDE5
:1009500073E080EB97E00E941F2410921406269605
:100960000FB6F894DEBF0FBECDBFDF91CF910895D3
:10097000CF92DF92EF92FF92CF93DF93CDB7DEB7A6
:100980002C970FB6F894DEBF0FBECDBF84EE95E076
:100990000E944B1B24E630E040E050E00E949A2A7F
:1009A000CA01B9010E94ED276B017C016093190611
:1009B00070931A0680931B0690931C0620E030E883
:1009C0004AE754E40E944E2787FF0CC020E030E441
:1009D0004AE754E4C701B6010E949D2887FD02C082
:1009E00081E00BC020E030E44AE754E4C701B601DF
:1009F0000E944E2787FF04C082E08093180602C041
:100A00001092180622E0B701A601CE0107960E94B7
:100A10003F266AEE73E0CE0101960E946325BE0177
:100A2000695F7F4FCE0101960E949726BC018FE738
:100A300096E00E94AC25CE0101960E94FC24CE01D6
:100A400007960E94FC246FE776E0CE0101960E9493
:100A5000C12562E074E0CE0101960E94A826BC0187
:100A60008FE796E00E94AC25CE0101960E94FC24FF
:100A70006FE776E080EB97E00E940F2420E030E003
:100A800040E550E06DE176E08FE796E00E94C026F9
:100A90004091190650911A0660911B0670911C0630
:100AA00022E0CE0101960E943F2663E070E0CE0175
:100AB000019648DDCE0101960E94FC242C960FB6CB
:100AC000F894DEBF0FBECDBFDF91CF91FF90EF90C6
:100AD000DF90CF900895CF93DF93CDB7DEB72C97FB
:100AE0000FB6F894DEBF0FBECDBF40E856EE65EC02
:100AF00077E484EE95E00E949E1CAB01BC0122E0ED
:100B0000CE0107960E943F2667E074E0CE01019671
:100B10000E946325BE01695F7F4FCE0101960E944E
:100B20009726BC0189E796E00E94AC25CE0101968C
:100B30000E94FC2469E776E0CE0101960E94C1255F
:100B400066E174E0CE0101960E94A826BC0189E707
:100B500096E00E94AC25CE0101960E94FC2469E734
:100B600076E080EB97E00E940F24BE01695F7F4F23
:100B7000CE0101960E94C12564E070E0CE0101968D
:100B8000E1DCCE0101960E94FC24CE0107960E9472
:100B9000FC242C960FB6F894DEBF0FBECDBFDF91BC
:100BA000CF910895AF92BF92CF92DF92EF92FF92D2
:100BB0000F931F93CF93DF93CDB7DEB762970FB636
:100BC000F894DEBF0FBECDBF87E30E94A01FBC011B
:100BD0009093160680931506809113066D3092E06F
:100BE00079070CF499C0813029F4809117068E3171
:100BF00009F02DC1882777FD8095982F1F921F92AD
:100C000029E02F9324EC2F93A12CB12C6501EE2425
:100C1000EA9413E0F12E00E010E020E030E0A901BA
:100C20000E94B224AB01BC012AE0CE0101960E94D1
:100C3000142660911506709116064AE0CE010D96B5
:100C40000E94EA2569E174E0CE0107960E946325BF
:100C5000BE01635F7F4FCE0107960E9497266AE42C
:100C600074E00E94A826BE016F5F7F4F0E94972606
:100C7000BC018DE696E00E94AC25CE0107960E944D
:100C8000FC24CE010D960E94FC24CE0101960E9408
:100C9000FC2420E030E040E550E06DE176E08DE6B8
:100CA00096E00E94C02660911506709116064AE0F3
:100CB000CE0101960E94EA2565E070E0CE01019622
:100CC00041DCCE0101960E94FC24609115067091D2
:100CD00016064AE0CE0107960E94EA256CE474E00D
:100CE000CE0101960E946325BE01695F7F4FCE0150
:100CF00001960E949726BC0180EB97E00E940F248A
:100D0000CE0101960E94FC24CE0107960E94FC248D
:100D100081E08093130697C0811105C0809117066A
:100D20008E3109F094C0882777FD8095982F1F9207
:100D30001F9229E02F9324EC2F93A12CB12C650155
:100D4000EE24EA9413E0F12E00E010E020E030E021
:100D5000A9010E94B224AB01BC012AE0CE01019698
:100D60000E94142660911506709116064AE0CE0185
:100D70000D960E94EA2561E874E0CE0107960E9474
:100D80006325BE01635F7F4FCE0107960E949726C1
:100D90006AE474E00E94A826BE016F5F7F4F0E9444
:100DA0009726BC018DE696E00E94AC25CE01079601
:100DB0000E94FC24CE010D960E94FC24CE010196D7
:100DC0000E94FC2420E030E040E550E06DE176E058
:100DD0008DE696E00E94C026609115067091160679
:100DE0004AE0CE0101960E94EA2565E070E0CE015E
:100DF0000196A8DBCE0101960E94FC2460911506A5
:100E0000709116064AE0CE0107960E94EA256AEA2A
:100E100074E0CE0101960E946325BE01695F7F4F99
:100E2000CE0101960E949726BC0180EB97E00E94BC
:100E30000F24CE0101960E94FC24CE0107960E9449
:100E4000FC24109213060F900F900F900F90629653
:100E50000FB6F894DEBF0FBECDBFDF91CF911F91CB
:100E60000F91FF90EF90DF90CF90BF90AF900895DB
:100E7000CF93DF93CDB7DEB72C970FB6F894DEBFD4
:100E80000FBECDBF8CEC95E00E940A1E20E030E042
:100E9000A9010E944E2787FF10C066EC73E0CE01C7
:100EA00001960E94632562E070E0CE0101964ADB64
:100EB000CE0101960E94FC2454C08CEC95E00E9467
:100EC0000A1EAB01BC0122E0CE0101960E943F2622
:100ED00062E070E0CE01019635DBCE0101960E9402
:100EE000FC248CEC95E00E940A1EAB01BC0122E0C0
:100EF000CE0107960E943F2660ED74E0CE01019678
:100F00000E946325BE01695F7F4FCE0101960E945A
:100F10009726BC0185E896E00E94AC25CE0101969B
:100F20000E94FC24CE0107960E94FC2465E876E02E
:100F3000CE0101960E94C1256AED74E0CE010196B2
:100F40000E94A826BC0185E896E00E94AC25CE014F
:100F500001960E94FC2465E876E080EB97E00E9411
:100F60000F242C960FB6F894DEBF0FBECDBFDF91D5
:100F7000CF910895CF93DF93CDB7DEB72C970FB6FF
:100F8000F894DEBF0FBECDBF8CEC95E00E94F41D3F
:100F900020E030E040E252EC0E944E2787FF10C074
:100FA00066EC73E0CE0101960E94632561E070E07B
:100FB000CE010196C7DACE0101960E94FC2454C0EE
:100FC0008CEC95E00E94F41DAB01BC0122E0CE0147
:100FD00001960E943F2661E070E0CE010196B2DAF0
:100FE000CE0101960E94FC248CEC95E00E94F41D39
:100FF000AB01BC0122E0CE0107960E943F266CEDBA
:1010000074E0CE0101960E946325BE01695F7F4FA7
:10101000CE0101960E949726BC018BE896E00E94C3
:10102000AC25CE0101960E94FC24CE0107960E94B9
:10103000FC246BE876E0CE0101960E94C1256AEEA1
:1010400074E0CE0101960E94A826BC018BE896E0D0
:101050000E94AC25CE0101960E94FC246BE876E04C
:1010600080EB97E00E940F242C960FB6F894DEBF19
:101070000FBECDBFDF91CF91089524DC93DD809129
:1010800017068E3131F476DFF3DE72DC24DD109248
:10109000170660ED77E080E090E00E94071F8091E6
:1010A00017068F5F8093170608958091CD0690E014
:1010B0002091CE06821B910908952091CE06809141
:1010C000CD06281750F4E22FF0E0E153F94F80816C
:1010D00090E02F5F2093CE0608958FEF9FEF089545
:1010E000E091CE068091CD06E81730F4F0E0E153B0
:1010F000F94F808190E008958FEF9FEF0895089554
:10110000CF92DF92EF92FF920F931F93CF93DF93D3
:101110007C01CB018A012091A906222389F0EB01F1
:101120006B01C40ED51ECC15DD0561F06991D701A8
:10113000ED91FC910190F081E02DC7011995F3CF5D
:10114000642F8FD1C801DF91CF911F910F91FF9034
:10115000EF90DF90CF900895CF93DF931F92CDB79C
:10116000DEB769832091A9062223D1F02091AA0637
:10117000203240F021E030E0FC013383228380E024
:1011800090E014C08091AB06E82FF0E0E455F94FF1
:10119000998190838F5F8093AB068093AA0604C0E9
:1011A00061E0CE0101965DD181E090E00F90DF918A
:1011B000CF910895FC011382128248EE53E060E063
:1011C00070E0448355836683778381E595E091835E
:1011D000808308951092CE061092CD061092AB0631
:1011E0001092AA0681C081E08093A9066093CC0684
:1011F0001092AB061092AA060895F5CF0F93062F12
:1012000021E04091AA066CEA76E08091CC06D2D02B
:101210001092AB061092AA061092A9060F9108959B
:101220008F929F92AF92BF92CF92DF92EF92FF92F6
:101230000F931F93CF93DF93EC01F62ED42E48012A
:101240005901EE2009F1CFDF1E2D143008F013E014
:101250001150B8F0E881F98128E0129FB001112403
:10126000A501940104C056954795379527956A9531
:10127000D2F7CA01B9010190F081E02DCE01199594
:10128000E7CF60E0CE01BADF4D2D413208F040E2F9
:101290002C2D6FEC76E08F2D45D01092CE068093EA
:1012A000CD06DF91CF911F910F91FF90EF90DF90CE
:1012B000CF90BF90AF909F908F900895CF92EF9274
:1012C0000F931F93C22EE12C00E010E09801A8DFDD
:1012D0001F910F91EF90CF90089521E0EFCF61E043
:1012E0008DCF8DE996E066CF10925C0781E0809308
:1012F0005A071092590761E084E10E94522061E090
:1013000085E10E945220E9EBF0E080818E7F8083AE
:1013100080818D7F808388E48093B80085E480930A
:10132000BC000895413208F043C090915C079111D0
:10133000FCCF91E090935C0720935A072FEF209306
:10134000EF0610923407240F2093330790935B0726
:1013500090915B07880F892B80935B0780915907D9
:10136000813061F41092590780915B078093BB0034
:101370008091BC0083FDF8CF85EC01C085EE8093A1
:10138000BC0080915C078130E1F3809134078417C1
:1013900010F44091340725E337E0FB01D9018A2F8F
:1013A000821B841718F48D918193F9CF842F0895AF
:1013B00080E008950F93413208F04AC090915C0795
:1013C0009111FCCF92E090935C0700935A079FEF36
:1013D0009093EF061092340740933307FB0165E3C7
:1013E00077E0DB019A2F961B941718F491919D9347
:1013F000F9CF10925B0790915B07880F892B809340
:101400005B0780915907813061F4109259078091F0
:101410005B078093BB008091BC0083FDF8CF85EC17
:1014200001C085EE8093BC00222321F080915C07EF
:101430008230E1F38091EF068F3F61F08091EF06FB
:10144000803251F08091EF06803341F483E007C091
:1014500081E005C080E003C082E001C084E00F911C
:101460000895613298F420915C07243089F46093E8
:101470001107FC0183E197E0DC012A2F281B2617C6
:1014800018F421912D93F9CF80E0089581E008951B
:1014900082E0089585ED8093BC008091BC0084FDBE
:1014A000FCCF10925C07089585EC8093BC001092ED
:1014B0005C0708951F920F920FB60F9211240BB67E
:1014C0000F922F933F934F935F936F937F938F93DD
:1014D0009F93AF93BF93EF93FF938091B900887F61
:1014E000803609F49DC070F5883209F45CC090F430
:1014F000803109F455C038F4882309F4F3C08830EA
:1015000009F44EC0F2C0883109F44DC0803209F4AC
:101510005EC0EBC0803409F469C050F4803309F434
:1015200056C0883309F0E1C08093EF06BDDFDDC00F
:10153000803509F44FC0883509F45DC0883409F05E
:10154000D4C0D2C0883909F4C3C0A8F4883709F4DC
:1015500067C038F4883609F463C0803709F460C086
:10156000C4C0883809F4B4C0803909F45FC0803839
:1015700009F0BBC05BC0803B09F482C038F4803AFC
:1015800009F466C0883A09F47BC0AFC0803C09F416
:10159000A3C0883C09F4A0C0883B09F486C0A5C05C
:1015A00080915B0710C090913407809133079817A2
:1015B00070F5E091340781E08E0F80933407F0E0FE
:1015C000EB5CF84F80818093BB0085EC82C08093F8
:1015D000EF068AC0E091340781E08E0F80933407D4
:1015E0008091BB00F0E0EB5CF84F80839091340772
:1015F000809133076AC0E091340781E08E0F8093B9
:1016000034078091BB00F0E0EB5CF84F8083809161
:101610005A07811169C081E08093590784EA5DC04F
:1016200083E080935C071092F006CFCF8091F006A4
:10163000803208F04DC0E091F00681E08E0F80937B
:10164000F0068091BB00F0E0EF50F94F8083BDCFF2
:101650002BDF8091F006803230F4E091F006F0E06C
:10166000EF50F94F10826091F00670E0E09155075D
:10167000F091560781EF96E019951092F00635C06B
:1016800084E080935C071092120710921107E0919A
:101690005707F0915807199580911107811105C0DE
:1016A00081E08093110710921307E091120781E007
:1016B0008E0F80931207F0E0ED5EF84F80818093EB
:1016C000BB009091120780911107981708F47DCF05
:1016D00085E88093BC0009C085EC8093BC00109223
:1016E0005C0703C01092EF06D5DEFF91EF91BF912A
:1016F000AF919F918F917F916F915F914F913F91AA
:101700002F910F900BBE0F900FBE0F901F9018954A
:10171000CF93CFB7F89480916007811127C0EBE693
:10172000F2E08491E5E2F2E09491E82FF0E0EE0F30
:10173000FF1FE055FD4FA591B4918C91892321F4B1
:1017400061E085E30E94522061E085E30E94192058
:101750008CB580618CBD8CB580648CBD61E084E308
:101760000E94192061E083E30E94192080916007A4
:101770008F5F80936007CFBFCF9108950F9300E0F4
:1017800020E040E060E081E697E00E9448230F916E
:101790000895FB014281538164817581FC0142837C
:1017A000538364837583178216820895FB0120E0BA
:1017B00080E090E06AE03191332309F170ED730F1E
:1017C0007A3080F4DC016A9FC0016B9F900D112478
:1017D000C097830F911D37FD9A958F3F910559F35F
:1017E00050F314C03E3291F4233081F0DA01A20F9D
:1017F000B11D12968C932F5F80E090E0DCCF2330F8
:1018000029F4FA01858381E090E0089580E090E07A
:1018100008950F9300E020E040E060E087E697E065
:101820000E9448230F910895AF92BF92CF92DF920A
:10183000EF92FF920F931F93CF93DF9300D01F92ED
:101840001F92CDB7DEB78C017B010E94D81EF80134
:10185000778366837627672776277A836983085F8D
:101860001F4F42E050E0BE016F5F7F4FC801BFD500
:1018700081E090E09C838B8342E050E0BE016D5F8D
:101880007F4FC801B4D580E091E09C838B8342E018
:1018900050E0BE016D5F7F4FC801A9D51C821B823D
:1018A00042E050E0BE016D5F7F4FC801A0D542E02D
:1018B00050E0BE016D5F7F4FC80199D542E050E016
:1018C000BE016D5F7F4FC80192D56701F60180812F
:1018D000882301F1F7016F018191811113C0560135
:1018E000AE18BF081A141B0484F4AD8241E050E026
:1018F000BE016B5F7F4FC8017AD5A501B701C80152
:1019000076D503C08E3239F7EACF7601FFEFEF1AB2
:10191000FF0ADCCF1D8241E050E0BE016B5F7F4FCC
:10192000C80165D5E12CFF24F394FC82EB8242E0F0
:1019300050E0BE016D5F7F4FC80159D5FC82EB823C
:1019400042E050E0BE016D5F7F4FC80150D581E09D
:1019500090E00F900F900F900F900F90DF91CF912C
:101960001F910F91FF90EF90DF90CF90BF90AF90BD
:1019700008954F925F926F927F928F929F92AF9253
:10198000BF92CF92DF92EF92FF920F931F93CF936C
:10199000DF93CDB7DEB763970FB6F894DEBF0FBE07
:1019A000CDBF7C015B016A010E94D81E2B013C0166
:1019B0008701085F1F4F4501A12CB12CC801B1D58B
:1019C0001816190694F00E94D81E64197509860924
:1019D000970986169706A806B906D0F062E370E06C
:1019E00080E090E00E94071FE9CFF7014281538118
:1019F00064817581808D918DA28DB38D48175907B3
:101A00006A077B0741F4848D958DC59721F406C044
:101A10008FEF9FEFE1C08EEF9FEFDEC0C801AED425
:101A20000C97E4F04CE050E0BE016F5F7F4FC801BF
:101A300019D56C818B810E94F7249A8B898BF701D1
:101A4000E680F7806A8189810E94F724E816F9060A
:101A500041F489899A8997FF04C008C08DEF9FEFF0
:101A6000BBC0C801A5D48CEF9FEFB6C08F70927039
:101A7000892B29F0C8019CD48BEF9FEFADC06885FE
:101A80008F810E94F7245C01009719F0E12CF12C62
:101A90001DC0C8018DD48AEF9FEF9EC041E050E089
:101AA000BE01635F7F4FC801DDD48D85811116C0F3
:101AB0008D858111F3CFC801ADD4C801ABD4C80165
:101AC000A9D4C801A7D4FFEFEF1AFF0A6E818D8158
:101AD0000E94F724E816F90608F309C08D859FEFE8
:101AE000980F9D87882321F3C80194D4F7CFE12C68
:101AF000F12C41E050E0BE016D5E7F4FC801B2D4D1
:101B00008B89982F907C59F4882361F08B899FEF03
:101B1000980F9B8B882331F0C8017CD4F7CFC80184
:101B200079D41B8A8B898111E4CF42E050E0BE0159
:101B3000615F7F4FC80196D442E050E0BE01635F11
:101B40007F4FC8018FD4C80165D4C80163D4C801D0
:101B500061D4C8015FD442E050E0BE016F5E7F4FA8
:101B6000C80180D48F8598898115914029F48D858D
:101B70009E858115914019F0812C912C14C0898982
:101B80009A898115944029F0C80112D487EF9FEFFC
:101B900023C0B6016E5F7F4F44E050E0C80162D4BD
:101BA00081E090E019C089899A8998278927982728
:101BB0008816990630F4C8012DD42FEF821A920AA4
:101BC000F2CF8FEFE81AF80AEA14FB0409F091CF7C
:101BD000C801EED386EF9FEF63960FB6F894DEBF91
:101BE0000FBECDBFDF91CF911F910F91FF90EF906E
:101BF000DF90CF90BF90AF909F908F907F906F902D
:101C00005F904F9008958F929F92AF92BF92CF9224
:101C1000DF92EF92FF920F931F93CF93DF9300D049
:101C200000D0CDB7DEB78C015B016A01BFDD4C018E
:101C3000009709F057C0F801428153816481758192
:101C40008091690790916A07A0916B07B0916C072A
:101C5000481759076A077B0709F448C00E94D81E35
:101C60007801F8E0EF0EF11C6F7077277C5FC701F9
:101C70002DD4813009F03EC08BEB95E09A838983A7
:101C8000F80182819381A481B5818B839C83AD838C
:101C9000BE8345E350E0BE016F5F7F4FC7019DD318
:101CA000892B19F4812C912C1AC0B501C801BCDD17
:101CB000892BC1F3C70198D3892BA1F333E0A32E5D
:101CC000B12CA60168E873E1C80153DE4C01F1E0D4
:101CD000AF1AB10821F08F3F2FEF920791F3C701A0
:101CE00068D308C088248394912C04C09EEF892E69
:101CF00099249A94C40126960FB6F894DEBF0FBEBD
:101D0000CDBFDF91CF911F910F91FF90EF90DF90AA
:101D1000CF90BF90AF909F908F90089520915F07D4
:101D2000222399F03FB7F89420915F07213059F4AE
:101D30002DB320935D074DB320915E07209524239A
:101D40002DBB3FBF02C030935D078CBD9DBD089584
:101D500080915F07882361F09FB7F89420915F0717
:101D600080915D07213019F48DBB9FBF08958FBF0F
:101D7000089544E050E0BC0181E090E00C94FE172F
:101D800044E050E0BC0185E090E00C94FE1744E094
:101D900050E0BC018FE090E00C94FE178F929F9270
:101DA000AF92BF92CF92DF92EF92FF920F931F9369
:101DB000CF93DF931F921F92CDB7DEB74C016A011C
:101DC000590187E997E069837A830E949A1780E531
:101DD00090E0A4DF46E050E069817A8189E090E0FC
:101DE0000E94FE17C6010296D2DFC8010296C1DF2B
:101DF000C7010296C5DFACDFF501428153816481E2
:101E00007581F40142835383648375830F900F902F
:101E1000DF91CF911F910F91FF90EF90DF90CF90C6
:101E2000BF90AF909F908F9008956F927F928F9206
:101E30009F92AF92BF92CF92DF92EF92FF920F9359
:101E40001F93CF93DF93CDB7DEB76E970FB6F8949D
:101E5000DEBF0FBECDBF6C015B017A0149013801C5
:101E600000E02FEF4FEF6FEFCE0149960E9448231D
:101E70002BEB35E03A8329838B8D9C8DAD8DBE8D08
:101E80008B839C83AD83BE8338872F83F30182814C
:101E90009381A481B58189879A87AB87BC873E8768
:101EA0002D87F40182819381A481B5818F87988BDE
:101EB000A98BBA8B3C8B2B8BF701428153816481B8
:101EC00075814D8B5E8B6F8B788FCE0101967C0177
:101ED0008E01095F1F4F9E01235F3F4FAE014D5E94
:101EE0005F4FB501C6015ADF6E960FB6F894DEBF9C
:101EF0000FBECDBFDF91CF911F910F91FF90EF905B
:101F0000DF90CF90BF90AF909F908F907F906F9019
:101F10000895CF93DF93EC010E943E2380E590E08B
:101F2000FDDEBE016E5F7F4F44E050E08FE090E049
:101F30000E9414190DDFCE01DF91CF9108952BEB94
:101F400035E0FC0131832083FB01428153816481B0
:101F50007581FC01428353836483758308950F93D5
:101F600000E020E040E060E08DE797E00E94482339
:101F70008DE697E00F910C943E2381E0862708952B
:101F8000862F0895DC01ED91FC91048CF58DE02DF8
:101F9000199591E089270895CF93DF931F92CDB7CC
:101FA000DEB76983DC01ED91FC910280F381E02DC5
:101FB00041E050E0BE016F5F7F4F19950F90DF91B8
:101FC000CF91089521E0FC018485843009F420E05C
:101FD000822F0895FC019485FB018485981303C02A
:101FE00081E0943009F480E008950F931F93CF931C
:101FF000DF93EC018A018C85843019F06ED5892B32
:1020000039F481E090E09B838A8380E090E001C016
:10201000C801DF91CF911F910F910895FC01848534
:10202000843009F038C680E090E00895CF93DF93C4
:102030001F92CDB7DEB741E050E0BE016F5F7F4F2A
:10204000FC018485CED5181619061CF4898190E010
:1020500002C08FEF9FEF0F90DF91CF910895FC01A9
:102060008485BFC50F931F93CF93DF931F92CDB786
:10207000DEB78C01DC01ED91FC910480F581E02D4F
:102080001995892B49F0BE016F5F7F4FF801848558
:1020900029D6898190E002C08FEF9FEF0F90DF91EA
:1020A000CF911F910F910895FC01848547C6CF926F
:1020B000DF92EF92FF920F931F93CF93DF93CDB7F1
:1020C000DEB7AF970FB6F894DEBF0FBECDBF7C0171
:1020D0008B016A01CE0101960E943E23CE01099632
:1020E000FDD2CE018A960E943E236DE677E0CE01B6
:1020F000849625DFBE016C5D7F4FCE01019649DBE2
:10210000AE01465D5F4FB801CE0101967CDD8130A6
:102110009105C1F4D701ED91FC910484F585E02D82
:102120008BEB95E09DA38CA30CA51DA52EA53FA52B
:102130000EA31FA328A739A7A601BE016C5D7F4F80
:10214000C7011995AF960FB6F894DEBF0FBECDBF8D
:10215000DF91CF911F910F91FF90EF90DF90CF9083
:102160000895FC011382128248EE53E060E070E0B3
:10217000448355836683778381E695E091838083EA
:1021800084E084870895FC018485843009F098C335
:1021900080E00895DF92EF92FF920F931F93CF9309
:1021A000DF93EC017B018A018C85843009F040C00B
:1021B000D12C8D2D85D3811102C0DC8607C08B7F89
:1021C0008831D9F3D39484E0D812F3CF8C8584304E
:1021D00079F120912202309123022F5F3F4F11F4B9
:1021E00020E030EC3093230220932202409122021F
:1021F0005091230220E061E0ACD3B7016E5F7F4FC6
:10220000A8018C85F4D3811103C084E08C8710C0B1
:10221000CE01B9DF873149F061E070E080E090E005
:102220000E94071FCE01AFDFEECF81E090E002C039
:1022300080E090E0DF91CF911F910F91FF90EF90A0
:10224000DF900895CF92DF92EF92FF92CF93DF93CA
:10225000EC018C85843031F11DD40E94D81E6B01B5
:102260007C01CE0190DF882399F061E070E080E08E
:1022700090E00E94071F0E94D81E6C197D098E09EC
:102280009F09683E73408105910558F38C853BD3C7
:10229000EC85F0E0EE0FFF1FEB58F84F1182108233
:1022A00084E08C87DF91CF91FF90EF90DF90CF900B
:1022B0000895CF93DF93EC018C858430C9F0CE0173
:1022C00062DF8431A9F0882399F0883189F08C315C
:1022D00069F4E881F9810480F581E02DCE0119953A
:1022E00021E0892B09F420E0822F03C081E001C0A6
:1022F00080E0DF91CF910895CF93DF93EB01FC0154
:10230000848590E0982F882744E050E0845F9B4FBD
:102310008BD7CE01DF91CF9108950F9300E020E09D
:1023200040E060E083E897E00E9448230F91089521
:102330000F9300E020E040E060E089E897E00E9431
:1023400048230F910895DC01ED91FC91008CF18DF3
:10235000E02D19942BEB35E0FC0131832083FB0148
:102360004089518962897389FC0142835383648364
:1023700075830895FC01848995890895FC01818DF8
:10238000928D0895CF93DF931F92CDB7DEB7698307
:10239000DC01ED91FC910280F381E02D41E050E001
:1023A000BE016F5F7F4F19950F90DF91CF91089518
:1023B0000895CF93DF93EC01888D843059F0A3D238
:1023C000E88DF0E0EE0FFF1FEB58F84F11821082FE
:1023D00084E0888FDF91CF910895FC01178A168AD7
:1023E0006E5F7F4F808DEFC4FC01808D30C5CF9331
:1023F000DF93EC019A018E899F89AB01BC01888D26
:102400009ED42E893F89280F391F3F8B2E8BDF9159
:10241000CF9108950F931F93CF93DF931F92CDB762
:10242000DEB78C01FC01818D928D892B51F041E04A
:1024300050E0BE016F5F7F4F808DD3D31816190611
:102440001CF08FEF9FEF08C0F801818D928D0197EE
:10245000928F818F898190E00F90DF91CF911F91B2
:102460000F910895CF93DF93EC01898D9A8D00979A
:1024700019F48FEF9FEF0FC04817590708F0AC0110
:10248000888DAFD318161906A4F7298D3A8D281B0D
:10249000390B3A8F298FDF91CF910895CF93DF9336
:1024A0001F92CDB7DEB7FC01218D328D232B41F079
:1024B000BE016F5F7F4F808D15D4898190E002C08F
:1024C0008FEF9FEF0F90DF91CF910895FF920F93C1
:1024D0001F93CF93DF93EC018B01888D8430D1F46F
:1024E000F12C8F2DEDD1811102C0F88E06C08831FC
:1024F000E1F3F39484E0F812F4CF888D843051F046
:102500001D870C871A8E198E20E0A80162E021D267
:1025100081E001C080E0DF91CF911F910F91FF908A
:1025200008950F931F93CF93DF93CDB7DEB728970E
:102530000FB6F894DEBF0FBECDBF8C01F801818DC0
:10254000928D892B49F0D801ED91FC910680F7819D
:10255000E02DC8011995F2CF808D9DD3181619066C
:102560003CF548E050E0BE016F5F7F4FD8015896C0
:102570008C9137D318161906ECF4BE016F5F7F4FAC
:10258000C8010E960E9454238D8190E0982F8827D1
:102590002E81820F911DF801958B848B8F8190E0A5
:1025A000982F88272885820F911D928F818F02C0D6
:1025B00080E090E028960FB6F894DEBF0FBECDBF46
:1025C000DF91CF911F910F9108958F929F92AF92BB
:1025D000BF92CF92DF92EF92FF920F931F93CF9310
:1025E000DF9300D000D0CDB7DEB78C017B014A016C
:1025F000FC01808D843009F05DC073E0A72E74E08B
:10260000B72EC12CD12CC50122D5811103C0F801F0
:10261000C08E0AC08831D9F3FFEFCF1ADF0AB39416
:10262000E4E0CE16D10479F7F801808D843009F406
:1026300041C096E0E5E2F2E0DE01119601900D92D4
:102640009A95E1F7F70193819F779C8394819D830D
:1026500095819E83B7016E5F7F4F90E0982F88270A
:1026600044E050E0845F9B4FC9D4F801808D90E036
:102670000496F82EEE24692DC70140963ED4682DAD
:10268000C70141963AD4F801808D90E0982F8827B1
:1026900046E050E0BE016F5F7F4F8A5F9B4FAED434
:1026A000F801128E118E20E8A40162E0808D51D1D4
:1026B00081E001C080E026960FB6F894DEBF0FBE21
:1026C000CDBFDF91CF911F910F91FF90EF90DF90E1
:1026D000CF90BF90AF909F908F900895CF93DF934E
:1026E000EC011B821A8248EE53E060E070E04C83FC
:1026F0005D836E837F8385E895E099838883CE012F
:102700000E960E943E2384E0888FDF91CF9108953A
:10271000CF92DF92EF92FF920F931F93CF93DF93AD
:10272000CDB7DEB7AF970FB6F894DEBF0FBECDBF03
:102730007C018B016A01CE0101960E943E23CE01ED
:102740000996CCDFCE018A960E943E236DE677E0A3
:10275000CE018496F4DBBE016C5D7F4FCE01019605
:1027600018D8AE01465D5F4FB801CE0101964BDA35
:1027700081309105C1F4D701ED91FC910088F18978
:10278000E02D8BEB95E09DA38CA30CA51DA52EA59C
:102790003FA50EA31FA328A739A7A601BE016C5D04
:1027A0007F4FC7011995AF960FB6F894DEBF0FBEE5
:1027B000CDBFDF91CF911F910F91FF90EF90DF90F0
:1027C000CF9008950F9300E020E040E060E08FE8B4
:1027D00097E00E9448230F910895CF92DF92EF92E5
:1027E000FF920F9330E0C12CF2E1DF2EFAE7EF2EDB
:1027F000F12C4C155D056E057F0540F4F694E794C9
:10280000D794C7943F5F3630A1F737E041E04327C4
:10281000211102C050E701C050E5242F30E035956A
:10282000279523700C70202B252BFC0120834170F1
:1028300041830F91FF90EF90DF90CF90089590E04B
:10284000982F882744E050E0845F9B4FD7C3282F00
:1028500030E02C5F3F4F922F8827860F971FF7C3DA
:1028600062E070E0F4CFFB01282F30E02C5F3F4F97
:10287000922F8827642F8E0F9F1F3FC3CF93DF9324
:10288000C82FD62F472F64E070E0EDDF4D2F65E0B5
:1028900070E08C2FDF91CF91E6CF462F62E070E0A1
:1028A000E2CFCF93DF93C82FD62F472F60E170E0A0
:1028B000DADF4D2F61E170E08C2FDF91CF91D3CF24
:1028C0000F931F93CF93DF9300D0CDB7DEB7182FB0
:1028D00000E021E040E059E06DE370E0CE010196B8
:1028E0007CDF89819A811ADA63E070E0812FAFDFA3
:1028F0008B832EDA8B810F900F900F90DF91CF9109
:102900001F910F9108950F931F93CF93DF931F9201
:102910001F92CDB7DEB7182F00E021E040E059E06C
:102920006DE370E0CE01019658DF89819A81F6D976
:1029300040E150E0612F87E997E032D56FEF812FBA
:10294000ACDF06DA0F900F90DF91CF911F910F91BE
:102950000895CF92DF92EF92FF920F931F93CF9340
:10296000DF931F921F92CDB7DEB7182FD62E7A01B4
:10297000C22E8FEF860F853070F5812FC4DF00E007
:1029800021E040E059E06DE370E0CE01019625DFE3
:1029900089819A81C3D94D2D4C2960E070E0812F47
:1029A00062DFE114F10411F0B7010AC060919507EC
:1029B000709196076F5F7F4F7093960760939507AE
:1029C000812F5CDF41E050E0612F87E997E0E8D498
:1029D000BFD981E001C080E00F900F90DF91CF91CF
:1029E0001F910F91FF90EF90DF90CF900895CF92BD
:1029F000DF92EF92FF920F931F93CF93DF931F927B
:102A00001F92CDB7DEB7182F7B016A01FB018081D1
:102A10008F3F51F481818F3F99F482818F3F81F400
:102A200083818F3F69F42AC081110AC0FB01818133
:102A3000811106C08281811103C083818823F1F056
:102A4000C114D104D9F000E021E040E059E06DE389
:102A500070E0CE010196C1DE89819A815FD9B7010C
:102A6000812FEDDEB601812F1CDF44E050E0612FA5
:102A700087E997E095D46CD981E001C080E00F90A0
:102A80000F90DF91CF911F910F91FF90EF90DF900A
:102A9000CF9008950F931F93CF93DF931F921F92B0
:102AA000CDB7DEB7182F00E021E040E059E06DE33C
:102AB00070E0CE01019691DE89819A812FD948E09C
:102AC00050E0612F87E997E06BD442D90F900F90C7
:102AD000DF91CF911F910F910895BF92CF92DF9216
:102AE000EF92FF920F931F93CF93DF9300D0CDB758
:102AF000DEB7B82E6B017A01413088E0580718F034
:102B0000E12C98E0F92E00E021E040E059E06DE38F
:102B100070E0CE01019661DE89819A81FFD86B2D2C
:102B200087E997E0C4D28C0163E070E08B2D8FDEE3
:102B30008B830ED98B81873111F08C3131F40E9457
:102B40008D1E0E151F05F8F202C0E12CF12C00E0DD
:102B500021E040E059E06DE370E0CE0101963DDEFA
:102B600089819A81DBD89701A6016B2D87E997E0CF
:102B700051D340E250E06B2D87E997E011D48B2DC3
:102B80006FDE84FD1CC063E070E08B2D60DE811180
:102B900006C0DED88B2DB7DE80E090E015C0D8D817
:102BA0000E948D1E00E021E040E059E06DE370E0FE
:102BB000CE01019612DE89819A81B0D8E0CF60E122
:102BC0008B2D6BDEC5D8C7010F900F900F90DF9152
:102BD000CF911F910F91FF90EF90DF90CF90BF901A
:102BE0000895AF92BF92CF92DF92EF92FF920F9330
:102BF0001F93CF93DF931F921F92CDB7DEB7182F8D
:102C00005B016A0100E021E040E059E06DE370E023
:102C1000CE010196E2DD89819A8180D8612F87E912
:102C200097E075D27C01009799F463E070E0812F02
:102C30000EDE843109F18823F9F021E030E08C3197
:102C400011F420E030E0EE24FF24E21AF30A14C06D
:102C5000C816D9060CF476011E141F046CF400E0AB
:102C60009701A501612F87E997E04FD340E450E039
:102C7000612F87E997E094D36BD8C7010F900F902D
:102C8000DF91CF911F910F91FF90EF90DF90CF9048
:102C9000BF90AF9008950F931F93CF93DF9300D011
:102CA0001F92CDB7DEB7182F00E021E040E059E0D9
:102CB0006DE370E0CE01019690DD89819A812ED876
:102CC000612F87E997E023D28B839C8341D88B8146
:102CD0009C810F900F900F900F90DF91CF911F91DB
:102CE0000F910895EF92FF920F931F93CF93DF936D
:102CF0001F921F92CDB7DEB7182F7B0100E021E0B5
:102D000040E059E06DE370E0CE01019666DD898117
:102D10009A8104D801E021E030E0A701612F87E922
:102D200097E0F3D215D881E090E00F900F90DF91FB
:102D3000CF911F910F91FF90EF90089508959F926A
:102D4000AF92BF92CF92DF92EF92FF920F931F93B9
:102D5000CF93DF931F921F92CDB7DEB7982E6B01F2
:102D60005A01790100E021E040E059E06DE370E0B4
:102D7000CE01019632DD89819A810E948E0E692DE5
:102D800087E997E094D18E159F0528F4692D87E98E
:102D900097E08DD17C0187019501A601692D87E916
:102DA00097E0CFD10E94A80EC7010F900F90DF913E
:102DB000CF911F910F91FF90EF90DF90CF90BF9038
:102DC000AF909F900895CF92DF92EF92FF920F9372
:102DD0001F93CF93DF931F921F92CDB7DEB7182FAB
:102DE0007B016A01FB018081811109C08181811110
:102DF00006C08281811103C083818823D9F0C11468
:102E0000D104C1F000E021E040E059E06DE370E062
:102E1000CE010196E2DC89819A810E948E0EB70173
:102E2000812F0DDDB601812F3CDD0E94A80E81E0CF
:102E300090E002C080E090E00F900F90DF91CF9182
:102E40001F910F91FF90EF90DF90CF9008950F9317
:102E50001F93CF93DF931F921F92CDB7DEB7182F2A
:102E600000E021E040E059E06DE370E0CE01019622
:102E7000B4DC89819A810E948E0E40E250E0612F7D
:102E800087E997E08DD2812FEBDC84FD1DC0812F77
:102E9000E7DC83FF08C068E1812FFFDC0E94A80EF9
:102EA00080E090E018C00E94A80E37D700E021E033
:102EB00040E059E06DE370E0CE0101968EDC89813F
:102EC0009A810E948E0EDFCF60E1812FE6DC0E94A6
:102ED000A80E81E090E00F900F90DF91CF911F91AD
:102EE0000F9108958EBD00000DB407FEFDCF8EB585
:102EF00008952C9808952C9A08951F93CF93DF93EB
:102F00001F921F92CDB7DEB7182F6A839983F1DF26
:102F100080EFE8DF9981892FE5DF812FE3DF6A8188
:102F2000862FE0DFE8DF81E00F900F90DF91CF91F7
:102F30001F910895CF93DF93EC016CE271E080E084
:102F400090E065D70E94880B249A80915F078823C0
:102F500099F09FB7F89480915F07813059F48DB351
:102F600080935D072DB380915E07809582238DBB92
:102F70009FBF02C090935D0780E58CBD1DBC60E8DB
:102F800080E090E0BADF65E58BE190E0B6DF65E5D3
:102F90008AE190E0B2DF80915F07882361F09FB7FC
:102FA000F89420915F0780915D07213019F48DBB63
:102FB0009FBF01C08FBF80E090E49983888380E049
:102FC00090E69987888780E098E49B838A8380E0F5
:102FD00098E69B878A8780E090E59D838C8380E0DC
:102FE00090E79D878C8780E098E59F838E8380E0C3
:102FF00098E79F878E87DF91CF910895CF92DF92D8
:10300000EF92FF920F931F93CF93DF93EC017A011E
:103010008B016C01C40ED51ECC15DD0571F069DF86
:1030200080EF60DF8D2F5EDF8C2F5CDF2196F80153
:1030300081918F0157DF5FDFEFCFC701DF91CF9124
:103040001F910F91FF90EF90DF90CF9008951F9305
:10305000CF93DF931F92CDB7DEB7182F998349DF47
:103060008FE040DF9981892F3DDF812F3BDF80E0BA
:1030700039DF898340DF89810F90DF91CF911F91E4
:1030800008951F93CF93DF93182F60E270E0DFDB8A
:10309000C82FD0E061E270E0812FD9DBDC2FCC2794
:1030A0009E01282BC901DF91CF911F910895FF92B6
:1030B0000F931F93CF93DF93F62EC0E0D0E08F2DB8
:1030C000E0DF8C01009719F08F2DDBDFEC01C017DA
:1030D000D107A9F7CE01DF91CF911F910F91FF90FA
:1030E00008951F93CF93DF93182F66E270E0AFDB54
:1030F000C82FD0E067E270E0812FA9DBDC2FCC275E
:103100009E01282BC901DF91CF911F910895FF9255
:103110000F931F93CF93DF93F62EC0E0D0E08F2D57
:10312000E0DF8C01009719F08F2DDBDFEC01C01779
:10313000D107A9F7CE01DF91CF911F910F91FF9099
:1031400008956F927F929F92AF92BF92CF92DF923B
:10315000EF92FF920F931F93CF93DF931F92CDB700
:10316000DEB7D82E962E3A01590164E270E0892D1F
:1031700099836DDBE82EF12C65E270E0892D67DB29
:10318000FE2CEE24E82AE60CF71C970137706D2C14
:103190009981792E690C711C690C711CD301ED9118
:1031A000FC91E20FF31FC901800F911F81309840FD
:1031B00098F0C12C48E0D42EC21AD30AA601B5015A
:1031C000CF011CDFA8014C195D09B5016C0D7D1DF7
:1031D000F3018081918103C0A801B501CF010EDF09
:1031E000E00EF11E4F2D64E270E0892D3CDB4E2D88
:1031F00065E270E0892D0F90DF91CF911F910F91C3
:10320000FF90EF90DF90CF90BF90AF909F907F9016
:103210006F9029CB0F931F9389019A0140E050E0F2
:1032200090DF1F910F910895CF92DF92EF92FF925E
:103230000F931F93CF93DF93EC017A018B016C0105
:10324000C40ED51ECC15DD0579F053DE8FE04ADEC5
:103250008D2F48DE8C2F46DE219680E043DEF8017C
:1032600081938F0148DEEECFC701DF91CF911F918F
:103270000F91FF90EF90DF90CF900895AF92BF92A3
:10328000CF92DF92EF92FF920F931F93CF93DF9332
:103290001F921F92CDB7DEB75A8349835901E98146
:1032A000FA81F7707C01E60EF11CE60EF11CD701E5
:1032B00018968D919C9119978E0F9F1F98012E0F34
:1032C0003F1F2130384090F0C12C68E0D62ECE1A36
:1032D000DF0AA601B501A8DFA8014C195D09B501F7
:1032E0006C0D7D1DF7018085918502C0A801B50197
:1032F0000F900F90DF91CF911F910F91FF90EF9062
:10330000DF90CF90BF90AF908FCF8F929F92AF9270
:10331000BF92CF92DF92EF92FF920F931F93CF93C2
:10332000DF936C01962E5A017901802E68E270E0DD
:10333000892D8DDAC82FD0E069E270E0892D87DA17
:10334000DC2FCC27C82B87019501AE01692DC60162
:1033500095DF811018C0CE0DDF1D4D2F68E270E0A3
:10336000892D81DA4C2F69E270E0892DDF91CF91B0
:103370001F910F91FF90EF90DF90CF90BF90AF9093
:103380009F908F9070CADF91CF911F910F91FF9006
:10339000EF90DF90CF90BF90AF909F908F90089567
:1033A000CF93C62F61E070E08C2F5DDA61E070E0B2
:1033B0008C2F4DDA8111FACFCF9108950895CF92D5
:1033C000DF92EF92FF92FC0185899689481B590B89
:1033D00061097109A389B4899A01AB010E94BC2AD1
:1033E0006B017C018FE0F594E794D794C7948A959C
:1033F000D1F765857685882777FD8095982F2BE016
:10340000660F771F881F991F2A95D1F72785308966
:10341000442737FD4095542F2C0D3D1D4E1D5F1D3B
:103420000E949A2A2C0D3D1D4E1D5F1DCA01B90137
:10343000FF90EF90DF90CF9008951F93CF93DF938D
:103440001F92CDB7DEB7162F67E770E08DE996E0E3
:1034500049830E94FD08612F8DE996E00E94AC0827
:103460004981642F8DE996E00E94AC088DE996E0D1
:103470000F90DF91CF911F910C946F09CF93C62FBE
:1034800067E770E08DE996E00E94FD086C2F8DE9FA
:1034900096E00E94AC088DE996E00E946F0967E70C
:1034A00070E08DE996E00E94FD0841E050E067E79A
:1034B00070E08DE996E00E946D098DE996E00E942A
:1034C0005D08C82F8DE996E00E946F098C2FCF917F
:1034D0000895CF93DF93C62F67E770E08DE996E0FC
:1034E0000E94FD086C2F8DE996E00E94AC088DE9E2
:1034F00096E00E946F0967E770E08DE996E00E9410
:10350000FD0842E050E067E770E08DE996E00E9438
:103510006D098DE996E00E945D08D82F80E0C82FE4
:103520008DE996E00E945D08C82BD92B8DE996E0C5
:103530000E946F09CE01DF91CF910895CF93DF9361
:10354000EC01643008F063E068838DE996E00E9446
:10355000EA0860EDCE0192DF853509F039C06AEAEC
:10356000CE01B7DF9A8389836CEACE01B2DF9C83F8
:103570008B836EEACE01ADDF9E838D8360EBCE013F
:10358000A8DF9A8B898B62EBCE01A3DF9C8B8B8BA0
:1035900064EBCE019EDF9E8B8D8B66EBCE0199DFB7
:1035A00098878F8368EBCE0194DF9A8789876AEBCF
:1035B000CE018FDF9C878B876CEBCE018ADF9E87E5
:1035C0008D876EEBCE0185DF988B8F8781E001C000
:1035D00080E0DF91CF910895CF93DF93EC014EE22D
:1035E00064EF2BDF65E070E080E090E010D466EFE0
:1035F000CE01DF91CF916DCFCF92DF92EF92FF920C
:10360000CF93DF93EC0148814295440F440F407CF7
:103610004C5C64EF12DF8881811105C065E070E0C9
:1036200080E090E012C0813029F468E070E080E032
:1036300090E00BC0823029F46EE070E080E090E012
:1036400004C06AE170E080E090E0E1D366EFCE0173
:1036500040DF6C01E12CF12CFE2CED2CDC2CCC2479
:1036600068EFCE010BDFA7019601282BCA01B90133
:10367000488128E030E0241B310904C096958795E5
:10368000779567952A95D2F7DF91CF91FF90EF90CC
:10369000DF90CF9008952F923F924F925F926F925A
:1036A0007F928F929F92AF92BF92CF92DF92EF92D2
:1036B000FF920F931F93CF93DF93CDB7DEB72A9777
:1036C0000FB6F894DEBF0FBECDBF9A87898784DF1F
:1036D0008C0189859A8590DF6D837E838F8398879F
:1036E000A80160E070E089859A8569DE4B015C0184
:1036F00080EA881A8FE0980AA108B108A501940110
:10370000C501B4010E94692A2B013C010CE07594AB
:103710006794579447940A95D1F7A985BA8511966D
:103720002D903C9012971C9115960D90BC91A02D58
:103730000E94C62A6B017C018DE0F594E794D79432
:10374000C7948A95D1F7E985FA85A781B085A30149
:1037500092010E94C62ABB2797FDB095AB2FC80ED9
:10376000D91EEA1EFB1EF2E0CF0ED11CE11CF11C9B
:1037700032E0F594E794D794C7943A95D1F780E86E
:10378000D80EE11CF11CE985FA85A189B289A7014F
:1037900096010E94BC2ADC01CB014FE0B695A795AB
:1037A000979587954A95D1F789839A83AB83BC8394
:1037B0006101EE24D7FCE094FE2C52E0CC0CDD1C21
:1037C000EE1CFF1C5A95D1F7A185B285A301920189
:1037D0000E94C62A2B013C016BE0759467945794B4
:1037E00047946A95D1F7A381B481A50194010E9401
:1037F000C62AEBE09595879577956795EA95D1F779
:10380000460E571E681E791EC40CD51CE61CF71CFC
:10381000012E04C0CC0CDD1CEE1CFF1C0A94D2F758
:1038200092E0C90ED11CE11CF11CC701B60124E0D5
:1038300030E040E050E00E949A2A8D819E81AF8165
:10384000B885821B930BA40BB50B9C01AD0160E501
:1038500073EC80E090E004C0969587957795679526
:103860001A95D2F70E94692A97FD0DC0660F771F3F
:10387000881F991F29813A814B815C810E94782A97
:1038800049015A010CC029813A814B815C810E9417
:10389000782A49015A01880C991CAA1CBB1C99273B
:1038A000B7FC9A958B2D7A2D692D9B01AC010E9456
:1038B000692A9B01AC01AEEDBBE00E94BC2A6C0101
:1038C000FF24D7FCF094EF2CA3E4B3EEA501940100
:1038D0000E94C82ABB2797FDB095AB2FC80ED91EF2
:1038E000EA1EFB1E9FECC90E9EE0D91EE11CF11CD6
:1038F000A4E0F594E794D794C794AA95D1F7C80C9F
:10390000D91CEA1CFB1CC701B6012A960FB6F89415
:10391000DEBF0FBECDBFDF91CF911F910F91FF9002
:10392000EF90DF90CF90BF90AF909F908F907F905F
:103930006F905F904F903F902F900895CF93DF93BB
:1039400000D01F92CDB7DEB79A01AB0129833A832D
:103950004B835C83A0DE0E94ED2729813A814B8155
:103960005C810E94522721E03EED42E45EE30E942A
:1039700004299B01AC0160E070E080E89FE30E94B5
:10398000E92620E03AE24DE257E40E94A1280F9098
:103990000F900F900F90DF91CF910895DC01159655
:1039A0006C93159716964C93169770E0FB01E051B7
:1039B000FE4FE4911796EC931797FB01EA5CFD4FDD
:1039C000649118966C93189740E85EE360E070E0AD
:1039D0001D964D935D936D937C9350970895FC01D4
:1039E00071836083538342830895CF92DF92EF9275
:1039F000FF920F931F93CF93DF93C62ED42E79019E
:103A000000E010E0C0E0D0E00E151F05A4F461E076
:103A10008D2D48D36AE070E080E090E0F8D1CC0FC3
:103A2000DD1F8C2D74D3C80FD91F60E08D2D3AD3C4
:103A30000F5F1F4FE9CFCE01DF91CF911F910F9103
:103A4000FF90EF90DF90CF9008951F93CF93DF9377
:103A5000162FC42FD22F61E0842FEBD261E08D2F7F
:103A6000E8D261E08C2F1ED361E08D2F1BD360E084
:103A70008C2F18D360E08D2F15D361E08D2F12D3DA
:103A800061E08C2F0FD360E08D2F0CD3212F41E00C
:103A90006D2F8C2F64D361E08D2F04D360E08C2FC9
:103AA000C8D28C2F34D360E08D2FFCD28C2FDF91C5
:103AB000CF911F912CC31F93CF93DF93162F60E0FC
:103AC000812FB7D2C4E6D0E06AE070E080E090E0F9
:103AD0009ED1812F1CD3892B11F02197A9F7DF915B
:103AE000CF911F910895CF92DF92EF92FF920F93A3
:103AF0001F93CF93DF938C01F62ED72EE42EC52E85
:103B000060E08F2D96D261E08E2D93D228E030E0D8
:103B10004E2D5C2D6F2D7D2DC80167DFD82F80E0E5
:103B2000C82F61E08F2D85D261E08F2DBBD260E080
:103B30008F2DB8D261E08E2DB5D260E08E2DB2D23D
:103B400060E08F2D76D228E030E04E2D5C2D6F2D79
:103B50007D2DC8014ADF8C2B9D2BDF91CF911F91CA
:103B60000F91FF90EF90DF90CF900895CF93DF9368
:103B7000D62FC42F61E08D2F5CD261E08C2F59D2FB
:103B800061E08D2F8FD261E08C2F8CD260E08C2F82
:103B9000DF91CF9187C20F931F93CF93DF93EC01F7
:103BA0002A813B814881598163E070E04EDF688162
:103BB0007981CE0180DF4A815B8168817981CE0184
:103BC00092DF8C014A815B8168817981CE01CEDFF1
:103BD000B801882777FD8095982F0E94ED27DF9107
:103BE000CF911F910F910895D6DF0E94BA278827A1
:103BF00077FD8095982F0E94ED272AE037ED43E26C
:103C00005CE30E94A12820E030E040E252E40C9402
:103C1000E92608954F925F926F927F928F929F92C2
:103C2000AF92BF92CF92DF92EF92FF92CF93DF934A
:103C3000EC012A813B814881598165E070E005DF14
:103C400068817981CE0137DF4A815B816881798122
:103C5000CE0149DF7C014A815B8168817981CE0197
:103C600085DFB701882777FD8095982F0E94ED2783
:103C70006B017C0124E533EE45E25DE30E94A1285F
:103C800020E030E040E850E40E94E9264B015C016E
:103C900022EA37EE4BE356EBC701B6010E94A1289A
:103CA000A70196010E94A1289B01AC01C501B401A6
:103CB0000E94EA264B015C01CE0196DF20E030E055
:103CC00048EC51E40E94E9262B013C012CEA35EC3A
:103CD00047EA58E3C701B6010E94A1282AE037ED60
:103CE00043E25CE30E94EA269B01AC01C301B201FE
:103CF0000E94A128A50194010E94EA26DF91CF919C
:103D0000FF90EF90DF90CF90BF90AF909F908F90FB
:103D10007F906F905F904F90089508951F920F923B
:103D20000FB60F9211242F933F938F939F93AF93CE
:103D3000BF938091A8079091A907A091AA07B0917D
:103D4000AB073091A70723E0230F2D3720F401960E
:103D5000A11DB11D05C026E8230F0296A11DB11DAE
:103D60002093A7078093A8079093A907A093AA0779
:103D7000B093AB078091AC079091AD07A091AE07CF
:103D8000B091AF070196A11DB11D8093AC07909330
:103D9000AD07A093AE07B093AF07BF91AF919F91CE
:103DA0008F913F912F910F900FBE0F901F901895FC
:103DB0002FB7F8946091A8077091A9078091AA077E
:103DC0009091AB072FBF08953FB7F8948091AC074F
:103DD0009091AD07A091AE07B091AF0726B5A89B13
:103DE00005C02F3F19F00196A11DB11D3FBF6627E9
:103DF000782F892F9A2F620F711D811D911D42E02E
:103E0000660F771F881F991F4A95D1F708958F92E3
:103E10009F92AF92BF92CF92DF92EF92FF926B018F
:103E20007C01D2DF4B015C01C114D104E104F10437
:103E3000E1F073DFC9DF681979098A099B09683ED7
:103E400073408105910580F321E0C21AD108E10891
:103E5000F10888EE880E83E0981EA11CB11CC114E5
:103E6000D104E104F10431F7DFCFFF90EF90DF9050
:103E7000CF90BF90AF909F908F900895789484B525
:103E8000826084BD84B5816084BD85B5826085BD56
:103E900085B5816085BDEEE6F0E08081816080833C
:103EA000E1E8F0E01082808182608083808181601F
:103EB0008083E0E8F0E0808181608083E1EBF0E0E6
:103EC000808184608083E0EBF0E08081816080838A
:103ED000E1E9F0E08081826080838081816080837D
:103EE000E0E9F0E0808181608083E1EAF0E08081B8
:103EF00082608083808181608083E0EAF0E080815D
:103F000081608083E1E2F1E0808182608083808152
:103F100081608083E0E2F1E0808181608083EAE774
:103F2000F0E08081846080838081826080838081F2
:103F3000816080838081806880831092C1000895B1
:103F4000863308F0865320917B00982F9870277F46
:103F5000922B90937B0087702091240290E4299FFC
:103F600090011124822B80937C0080917A008064E0
:103F700080937A0080917A0086FDFCCF8091780052
:103F80002091790090E0922B089590E0FC01319708
:103F9000E231F10508F04CC0EE58FF4F0C94B62A00
:103FA000809180008F7703C0809180008F7D809307
:103FB0008000089580918000877FF9CF84B58F7746
:103FC00002C084B58F7D84BD08958091B0008F7745
:103FD00003C08091B0008F7D8093B00008958091E0
:103FE00090008F7707C0809190008F7D03C08091F3
:103FF0009000877F8093900008958091A0008F7734
:1040000007C08091A0008F7D03C08091A000877FB2
:104010008093A0000895809120018F7707C0809140
:1040200020018F7D03C080912001877F8093200134
:104030000895CF93DF9390E0FC01E051FE4F24916F
:10404000FC01EA5CFD4F8491882349F190E0880FE0
:10405000991FFC01E055FD4FA591B4918A569D4FE3
:10406000FC01C591D4919FB7611108C0F8948C915F
:10407000209582238C93888182230AC0623051F478
:10408000F8948C91322F309583238C938881822BE6
:10409000888304C0F8948C91822B8C939FBFDF910E
:1040A000CF9108950F931F93CF93DF931F92CDB7B6
:1040B000DEB7282F30E0F901E655FE4F8491F90173
:1040C000E051FE4F1491F901EA5CFD4F0491002389
:1040D000C1F0882319F0698358DF6981E02FF0E08F
:1040E000EE0FFF1FEA56FD4FA591B4919FB7F894CC
:1040F0008C91611103C01095812301C0812B8C9399
:104100009FBF0F90DF91CF911F910F910895CF9393
:10411000DF93282F30E0F901E655FE4F8491F90135
:10412000E051FE4FD491F901EA5CFD4FC491CC23DC
:1041300089F081112ADFEC2FF0E0EE0FFF1FE45829
:10414000FD4FA591B4912C912D2381E090E021F4B5
:1041500080E002C080E090E0DF91CF910895BF92AF
:10416000CF92DF92EF92FF920F931F93CF93DF9343
:10417000C82ED62EB42EC7E0D0E0022F10E087E084
:10418000E82EF12CB1100AC0F701EC1BFD0BB801B1
:1041900002C075956795EA95E2F707C0B8010C2E45
:1041A00002C0759567950A94E2F7617077278C2DA8
:1041B00079DF61E08D2D76DF60E08D2D73DF219753
:1041C00008F7DF91CF911F910F91FF90EF90DF9053
:1041D000CF90BF900895FC01818D228D90E0805C8E
:1041E0009F4F821B91098F7399270895FC01918D30
:1041F000828D981731F0828DE80FF11D858D90E04A
:1042000008958FEF9FEF0895FC01918D828D98178F
:1042100061F0828DDF01A80FB11D5D968C91928DAA
:104220009F5F9F73928F90E008958FEF9FEF0895A7
:104230008BEB92E2892B39F080E090E0892B19F02A
:104240009AD1811125C080E090E0892B41F080E077
:1042500090E0892B21F00E94000081111CC080E0B9
:1042600090E0892B41F080E090E0892B21F00E94C2
:104270000000811113C080E090E0892BA1F080E064
:1042800090E0892B81F00E94000081110AC00895FE
:104290000E940000D8CF0E940000E1CF0E940000E1
:1042A000EACF0C9400000895FC01848DDF01A80F73
:1042B000B11DA35ABF4F2C91848D90E001968F734E
:1042C0009927848FA689B7892C93A089B1898C916D
:1042D00080648C93938D848D981306C00288F38933
:1042E000E02D80818F7D80830895CF93DF93EC0153
:1042F000888D8823C1F0EA89FB89808185FD05C00E
:10430000A889B9898C9186FD0EC00FB607FCF5CF40
:10431000808185FFF2CFA889B9898C9185FFEDCF87
:10432000CE01C2DFE8CFDF91CF910895CF92DF9227
:10433000FF920F931F93CF93DF931F92CDB7DEB7FA
:104340006C0181E0D60158968C9358975B969C91AE
:104350005B975C968C915C97981307C05096ED9193
:10436000FC915197808185FD2DC0F601038D10E0F1
:104370000F5F1F4F0F731127F02EF601848DF81277
:1043800010C00FB607FCF9CFD6015096ED91FC9105
:104390005197808185FFF1CFC601698385DF6981EF
:1043A000ECCF838DE80FF11DE35AFF4F6083D601F8
:1043B0005B960C935B975296ED91FC91539780819D
:1043C00080620CC0D6015696ED91FC9157976083A0
:1043D0005096ED91FC91519780818064808381E0BB
:1043E00090E00F90DF91CF911F910F91FF90DF90A0
:1043F000CF900895BF92CF92DF92EF92FF92CF932A
:10440000DF93EC016A017B01B22EE889F98982E031
:104410008083411581EE580761057105A1F060E0C8
:1044200079E08DE390E0A70196010E94782A21505F
:104430003109410951095695479537952795211519
:1044400080E1380798F0E889F989108260E874E81B
:104450008EE190E0A70196010E94782A215031094F
:10446000410951095695479537952795EC85FD8566
:104470003083EE85FF852083188EEC89FD89B0821C
:10448000EA89FB89808180618083EA89FB89808158
:1044900088608083EA89FB89808180688083EA89DB
:1044A000FB8980818F7D8083DF91CF91FF90EF909A
:1044B000DF90CF90BF9008951F920F920FB60F928A
:1044C00011240BB60F922F938F939F93EF93FF932B
:1044D000E091C007F091C1078081E091C607F0919B
:1044E000C70782FD12C090818091C9078F5F8F73CB
:1044F0002091CA07821751F0E091C907F0E0E0551A
:10450000F84F958F8093C90701C08081FF91EF918B
:104510009F918F912F910F900BBE0F900FBE0F9018
:104520001F9018951F920F920FB60F9211240BB681
:104530000F922F933F934F935F936F937F938F933C
:104540009F93AF93BF93EF93FF9380EB97E0ACDE25
:10455000FF91EF91BF91AF919F918F917F916F915B
:104560005F914F913F912F910F900BBE0F900FBE17
:104570000F901F90189580EB97E02DDE21E0892B9E
:1045800009F420E0822F08951092B3071092B20729
:1045900088EE93E0A0E0B0E08093B4079093B50775
:1045A000A093B607B093B7078BEA95E09093B10755
:1045B0008093B00785EC90E09093BD078093BC0793
:1045C00084EC90E09093BF078093BE0780EC90E06E
:1045D0009093C1078093C00781EC90E09093C3074C
:1045E0008093C20782EC90E09093C5078093C40744
:1045F00086EC90E09093C7078093C6071092C90796
:104600001092CA071092CB071092CC070895AF9270
:10461000BF92CF92DF92EF92FF920F931F93CF93AF
:10462000DF936C017B01C0E0D0E000E010E0F60118
:10463000EC0FFD1F4AE050E06281C70179D15C01B7
:104640006EE2C701C8D08A0D9B1D080F191F219665
:10465000C330D10561F74AE050E0F6016581C7013A
:1046600067D1800F911FDF91CF911F910F91FF9024
:10467000EF90DF90CF90BF90AF9008952BEB35E097
:10468000FC013183208312821382148215820895E3
:104690000F93FC018BEB95E09183808362834383CE
:1046A000248305830F910895FB014081518162812C
:1046B0007381FC01428353836483758308958BEB7C
:1046C00095E090934E0880934D0810924F081092F9
:1046D0005008109251081092520808950895CEDBA8
:1046E000FDDF0E94BD03C8E1D1E20E943D08209792
:1046F000E1F39EDDFACFCF92DF92EF92FF920F931C
:104700001F93CF93DF937C016A01EB0100E010E07F
:104710000C151D0571F06991D701ED91FC91019087
:10472000F081E02DC7011995892B19F00F5F1F4FFC
:10473000EFCFC801DF91CF911F910F91FF90EF90C4
:10474000DF90CF9008956115710581F0DB010D9028
:104750000020E9F7AD0141505109461B570BDC0120
:10476000ED91FC910280F381E02D199480E090E0BE
:104770000895EF92FF920F931F93CF93DF938C01D5
:104780007B01C0E0D0E0F701EC0FFD1F64916623D0
:1047900059F0F801A081B181ED91FC91C801199502
:1047A000892B11F02196EFCFCE01DF91CF911F9190
:1047B0000F91FF90EF900895DC01ED91FC91DB01EA
:1047C00014964D915C9115976D917C910280F381C7
:1047D000E02D1994B8CFDC01ED91FC910190F081AE
:1047E000E02D1994DB01ED91FC9111970190F0817E
:1047F000E02DBC01CD0119946DEB75E0A4CF0F93B2
:104800001F93CF93DF93EC01B4DF8C01CE01F4DF73
:10481000800F911FDF91CF911F910F9108950F93FA
:104820001F93CF93DF93EC01C7DF8C01CE01E4DF50
:10483000800F911FDF91CF911F910F9108950F93DA
:104840001F93CF93DF93EC017EDF8C01CE01D4DF89
:10485000800F911FDF91CF911F910F9108950F93BA
:104860001F93CF93DF93EC01BDDF8C01CE01C4DF3A
:10487000800F911FDF91CF911F910F9108958F921B
:104880009F92AF92BF92DF92EF92FF920F931F938E
:10489000CF93DF93CDB7DEB7A1970FB6F894DEBF05
:1048A0000FBECDBF7C01F42FD52ECB0119A2223033
:1048B00008F42AE08E010F5D1F4F822E912CA12C4F
:1048C000B12C6F2F7D2DA501940112D6F22FD32E7E
:1048D000CA01015011096A3014F4E0E301C0E7E3B2
:1048E000E60FD801EC93232B242B252B51F7B8018D
:1048F000C70129DFA1960FB6F894DEBF0FBECDBF6A
:10490000DF91CF911F910F91FF90EF90DF90BF90BB
:10491000AF909F908F9008952115310541F4DC01EF
:10492000ED91FC910190F081E02D642F1994A7CFB7
:104930009A01462F50E060E070E0EECF0F931F9396
:10494000CF93DF93EC019A01AB0160E070E0E4DF0C
:104950008C01CE0151DF800F911FDF91CF911F910C
:104960000F9108954F925F926F927F92AF92BF9294
:10497000CF92DF92EF92FF920F931F93CF93DF932B
:10498000CDB7DEB729013A01621B730B840B950B7F
:104990002A893B894C895D892A193B094C095D09A3
:1049A0002A8B3B8B4C8B5D8B9B01AC016A897B898D
:1049B0008C899D898ED5E418F50806091709A80188
:1049C0009701B8D52A0D3B1D4C1D5D1DCA01B901CB
:1049D000DF91CF911F910F91FF90EF90DF90CF90DB
:1049E000BF90AF907F906F905F904F90089570E070
:1049F0009B01382BC9010895FC018081918197C6E4
:104A0000CF93DF93EC0188819981009709F08FD6CD
:104A1000198218821D821C821B821A82DF91CF911B
:104A200008950F931F93CF93DF93EC018B016F5F7A
:104A30007F4F888199810AD7009731F099838883C5
:104A40001B830A8381E001C080E0DF91CF911F9139
:104A50000F910895CF93DF93EC0188819981892B81
:104A600029F08A819B818617970758F4CE01D9DFF8
:104A7000882341F08C819D81892B19F4E881F9818B
:104A8000108281E0DF91CF910895EF92FF920F9312
:104A90001F93CF93DF93EC017B018A01BA01DADF28
:104AA000811103C0CE01ACDF06C01D830C83B701AA
:104AB00088819981B8D7CE01DF91CF911F910F9155
:104AC000FF90EF900895FC011182108213821282F0
:104AD000158214826115710551F0FB0101900020CF
:104AE000E9F7AF0141505109461B570BCECF08954E
:104AF0000F931F93CF93DF938C01EB01FC01808117
:104B00009181009789F0428153812C813D81421728
:104B1000530748F06881798186D78C819D81F8019F
:104B20009583848312C003D688819981F80191838B
:104B300080838A819B81938382838C819D819583ED
:104B40008483198218821B821A821D821C82DF9143
:104B5000CF911F910F910895CF93DF93EC01FB014B
:104B60008617970751F0608171816115710521F0F9
:104B7000448155818ADF01C043DFCE01DF91CF91AF
:104B80000895FC0111821082138212821582148210
:104B9000E3CFCF93DF93EC018617970709F0A8DFE7
:104BA000CE01DF91CF910895CF93DF93EC01611592
:104BB000710559F0FB0101900020E9F7AF01415068
:104BC0005109461B570B61DF01C01ADFCE01DF918F
:104BD000CF9108950F931F93CF93DF93CDB7DEB797
:104BE00062970FB6F894DEBF0FBECDBF8C01CB012C
:104BF000F80111821082138212821582148250E011
:104C0000BE016F5F7F4F25D7BE016F5F7F4FC80129
:104C1000CBDF62960FB6F894DEBF0FBECDBFDF913B
:104C2000CF911F910F9108950F931F93CF93DF930F
:104C3000CDB7DEB7A2970FB6F894DEBF0FBECDBFDB
:104C40008C01CB01BA01F801118210821382128209
:104C50001582148230E0AE014F5F5F4F0ED7BE0168
:104C60006F5F7F4FC801A0DFA2960FB6F894DEBF3A
:104C70000FBECDBFDF91CF911F910F910895EF929D
:104C8000FF920F931F93CF93DF93CDB7DEB7A1971A
:104C90000FB6F894DEBF0FBECDBF7C01CB01BA01C9
:104CA000F70111821082138212821582148242E06F
:104CB000420F8E010F5F1F4F82D4BC01C70174DF0A
:104CC000A1960FB6F894DEBF0FBECDBFDF91CF9196
:104CD0001F910F91FF90EF900895EF92FF920F9325
:104CE0001F93CF93DF93EC017B010C811D81611534
:104CF000710511F480E014C04115510581F0040FD5
:104D0000151FB801A7DE8823A9F3288139818C817A
:104D10009D81B701820F931F86D61D830C8381E08E
:104D2000DF91CF911F910F91FF90EF900895CF9356
:104D3000DF93EC01FB014481558160817181CDDFFE
:104D4000811102C0CE015CDECE01DF91CF910895CA
:104D5000CF93DF93EC016115710561F0FB010190C8
:104D60000020E9F7AF0141505109461B570BB5DF51
:104D7000811102C0CE0144DECE01DF91CF910895B2
:104D80000F931F93CF93DF93EB0141155105E1F092
:104D90002097D1F0FC01648175812617370798F4BC
:104DA000621B730B8A01015011096017710708F427
:104DB0008B01FC0160817181620F731FA801CE011C
:104DC00039D6C00FD11F1882DF91CF911F910F915B
:104DD00008955058BB27AA270ED075C166D130F070
:104DE0006BD120F031F49F3F11F41EF45BC10EF43F
:104DF000E095E7FB51C1E92F77D180F3BA1762073D
:104E000073078407950718F071F49EF58FC10EF4AF
:104E1000E0950B2EBA2FA02D0B01B90190010C01CA
:104E2000CA01A0011124FF27591B99F0593F50F4E2
:104E3000503E68F11A16F040A22F232F342F44273A
:104E4000585FF3CF469537952795A795F040539532
:104E5000C9F77EF41F16BA0B620B730B840BBAF002
:104E60009150A1F0FF0FBB1F661F771F881FC2F76D
:104E70000EC0BA0F621F731F841F48F48795779581
:104E80006795B795F7959E3F08F0B3CF9395880F38
:104E900008F09927EE0F979587950895D9D008F4D3
:104EA00081E008950CD00FC107D140F0FED030F062
:104EB00021F45F3F19F0F0C0511139C1F3C014D192
:104EC00098F39923C9F35523B1F3951B550BBB27D1
:104ED000AA2762177307840738F09F5F5F4F220F7E
:104EE000331F441FAA1FA9F333D00E2E3AF0E0E877
:104EF00030D091505040E695001CCAF729D0FE2FC3
:104F000027D0660F771F881FBB1F26173707480754
:104F1000AB07B0E809F0BB0B802DBF01FF2793580A
:104F20005F4F2AF09E3F510568F0B6C000C15F3F59
:104F3000ECF3983EDCF3869577956795B795F795F2
:104F40009F5FC9F7880F911D9695879597F90895EA
:104F5000E1E0660F771F881FBB1F62177307840786
:104F6000BA0720F0621B730B840BBA0BEE1F88F795
:104F7000E095089504D06894B111D9C00895BCD0CB
:104F800088F09F5790F0B92F9927B751A0F0D1F032
:104F9000660F771F881F991F1AF0BA95C9F712C0BC
:104FA000B13081F0C3D0B1E00895C0C0672F782F31
:104FB0008827B85F39F0B93FCCF386957795679528
:104FC000B395D9F73EF490958095709561957F4F94
:104FD0008F4F9F4F0895E89409C097FB3EF490953A
:104FE0008095709561957F4F8F4F9F4F9923A9F0C2
:104FF000F92F96E9BB279395F69587957795679551
:10500000B795F111F8CFFAF4BB0F11F460FF1BC094
:105010006F5F7F4F8F4F9F4F16C0882311F096E927
:1050200011C0772321F09EE8872F762F05C06623D5
:1050300071F096E8862F70E060E02AF09A95660F8E
:10504000771F881FDAF7880F9695879597F9089547
:10505000990F0008550FAA0BE0E8FEEF1616170689
:10506000E807F907C0F012161306E407F50798F0F1
:10507000621B730B840B950B39F40A2661F0232B0A
:10508000242B252B21F408950A2609F4A140A69586
:105090008FEF811D811D089597F99F6780E870E06B
:1050A00060E008959FEF80EC089500240A9416169E
:1050B000170618060906089500240A941216130606
:1050C000140605060895092E0394000C11F4882394
:1050D00052F0BB0F40F4BF2B11F460FF04C06F5FB0
:1050E0007F4F8F4F9F4F089557FD9058440F551F86
:1050F00059F05F3F71F04795880F97FB991F61F05A
:105100009F3F79F087950895121613061406551FD0
:10511000F2CF4695F1DF08C0161617061806991F3C
:10512000F1CF86957105610508940895E894BB2731
:1051300066277727CB0197F908958ADF08F48FEF68
:1051400008950BD0C0CFB1DF28F0B6DF18F095235B
:1051500009F0A2CFA7CF1124EACFC6DFA0F3959F15
:10516000D1F3950F50E0551F629FF001729FBB274E
:10517000F00DB11D639FAA27F00DB11DAA1F649FFA
:105180006627B00DA11D661F829F2227B00DA11DAD
:10519000621F739FB00DA11D621F839FA00D611D33
:1051A000221F749F3327A00D611D231F849F600D54
:1051B000211D822F762F6A2F11249F5750408AF08D
:1051C000E1F088234AF0EE0FFF1FBB1F661F771F19
:1051D000881F91505040A9F79E3F510570F05CCF59
:1051E000A6CF5F3FECF3983EDCF386957795679505
:1051F000B795F795E7959F5FC1F7FE2B880F911D37
:105200009695879597F90895FA01EE0FFF1F30964E
:105210002105310599F16115710561F48038BFE30D
:105220009B0749F168949038810561F08038BFEFA1
:105230009B0741F0992342F5FF3FE1053105210528
:1052400011F1E8940894E795D901AA2329F4AB2F2A
:10525000BE2FF85FD0F310C0FF5F70F4A695E0F7A3
:10526000F73950F019F0FF3A38F49F779F930CD03C
:105270000F9007FC905808953EF014CF60E070E066
:1052800080E89FE308954FE79F775F934F933F93A5
:105290002F93ACD02F913F914F915F9152DF05C07A
:1052A00019F40EF0F9CE42CFFDCE26DFC8F39638C2
:1052B000C0F707F80F92E8942BE33AEA48EB5FE770
:1052C0004EDF0F920F920F924DB75EB70F92CED076
:1052D000E8E0F1E024D04F915F91EF91FF91E595E7
:1052E000EE1FFF1F49F0FE57E0684427EE0F441FF2
:1052F000FA95E1F74195550B40D00F9007FE34C069
:1053000008959F3F31F0915020F4879577956795E8
:10531000B795880F911D9695879597F90895DF9316
:10532000CF931F930F93FF92EF92DF927B018C013B
:10533000689405C0DA2EEF0110DFFE01E894A59114
:105340002591359145915591AEF3EF0154DDFE0164
:105350009701A801DA9479F7DF90EF90FF900F9111
:105360001F91CF91DF9108959B01AC0160E070E047
:1053700080E89FE397CD90CEC4CFBEDEE8F39923BB
:10538000D9F3940F511DBBF39150504094F059F054
:10539000882332F0660F771F881F91505040C1F765
:1053A0009E3F510544F7880F911D9695879597F973
:1053B00008955F3FACF0983E9CF0BB2786957795AB
:1053C0006795B79508F4B1609395C1F7BB0F58F78F
:1053D00011F460FFE8CF6F5F7F4F8F4F9F4FE3CF98
:1053E000A6CE0EF08ECF5ECE689456CE85DEC8F384
:1053F0009923D1F3C6F3DF93CF931F930F93FF92BB
:10540000C92FDD2788232AF02197660F771F881F71
:10541000DAF720E030E040E85FEB9FE3883920F0E6
:10542000803E30F021968F77D5DCE0E3F1E003C0D9
:10543000D1DCEDE5F1E073DF8B01BE01EC01FB2E69
:105440006F5771097595771F880B990BC6DD28E199
:1054500032E741E35FE381DEAF2D9801AE01FF90BB
:105460000F911F91CF91DF91C6DC2DCEFA01DC01A7
:10547000AA0FBB1F9B01AC01BF5728F4222733277B
:10548000442750781FC0B75188F4AB2F00244695AD
:1054900037952795011CA395D2F3002069F0220FC0
:1054A000331F441FB395DAF30DD093CC61307105EF
:1054B000A0E88A07B94630F49B01AC01662777273C
:1054C00088279078309621F020833183428353835C
:1054D0000895DB018F939F934FD0BF91AF91A29F0F
:1054E000800D911DA39F900DB29F900D11240895E2
:1054F000A1E21A2EAA1BBB1BFD010DC0AA1FBB1FD8
:10550000EE1FFF1FA217B307E407F50720F0A21B49
:10551000B30BE40BF50B661F771F881F991F1A94B6
:1055200069F760957095809590959B01AC01BD01E0
:10553000CF010895052E97FB16F400940FD057FD68
:1055400005D0D6DF07FC02D046F408C05095409540
:10555000309521953F4F4F4F5F4F0895909580951F
:10556000709561957F4F8F4F9F4F0895EE0FFF1FEE
:105570000590F491E02D199413D0A59F900DB49F40
:10558000900DA49F800D911D11240895B7FFF4CFB5
:10559000F3DF821B930B08950790F691E02D199489
:1055A000A29FB001B39FC001A39F700D811D112464
:1055B000911DB29F700D811D1124911D0895EF92D0
:1055C0000F931F93CF93DF93E80147FF02C034E1AD
:1055D00001C034E0E42FFF27E7FDF095F7FF03C09B
:1055E000F195E195F109E32E022F2E2FAE0197D20E
:1055F000CE01DF91CF911F910F91EF900895CF933E
:10560000DF938230910510F482E090E0E09155083C
:10561000F091560820E030E0A0E0B0E0309739F19A
:105620004081518148175907B8F04817590771F45C
:1056300082819381109729F013969C938E931297F1
:105640002CC0909356088093550827C0211531052A
:1056500031F04217530718F0A901DB0101C0EF0137
:105660009A01BD01DF010280F381E02DD7CF211522
:105670003105F9F0281B390B2430310580F48A817B
:105680009B816115710521F0FB019383828304C026
:105690009093560880935508FE01329644C0FE014F
:1056A000E20FF31F819391932250310939832883AC
:1056B0003AC02091530830915408232B41F4209193
:1056C0000202309103023093540820935308209132
:1056D0000002309101022115310541F42DB73EB78A
:1056E0004091040250910502241B350BE0915308B0
:1056F000F0915408E217F307A0F42E1B3F0B281774
:10570000390778F0AC014E5F5F4F2417350748F03A
:105710004E0F5F1F50935408409353088193919309
:1057200002C0E0E0F0E0CF01DF91CF910895CF9388
:10573000DF93009709F487C0FC013297138212822D
:10574000C0915508D0915608209781F4208131816D
:10575000280F391F8091530890915408821793079E
:1057600079F5F0935408E09353086DC0DE0120E012
:1057700030E0AE17BF0750F412964D915C9113972D
:105780009D014115510509F1DA01F3CFB383A283DD
:1057900040815181840F951F8A179B0771F48D9169
:1057A0009C911197840F951F029691838083129686
:1057B0008D919C911397938382832115310529F450
:1057C000F0935608E09355083EC0D9011396FC9318
:1057D000EE9312974D915D91A40FB51FEA17FB0749
:1057E00079F480819181840F951F0296D9011196D9
:1057F0009C938E938281938113969C938E931297A0
:10580000E0E0F0E08A819B81009719F0FE01EC0155
:10581000F9CFCE01029628813981820F931F209102
:105820005308309154082817390769F4309729F440
:10583000109256081092550802C013821282D0931B
:105840005408C0935308DF91CF9108956F927F92CF
:105850008F929F92AF92BF92CF92DF92EF92FF9280
:105860000F931F93CF93DF93EC01CB01209779F433
:10587000DF91CF911F910F91FF90EF90DF90CF902C
:10588000BF90AF909F908F907F906F90B8CEFE01A9
:10589000E60FF71F9E0122503109E217F30708F4C3
:1058A000A8C0D9010D911C91119706171707B0F0E8
:1058B0000530110508F49BC0A80144505109461752
:1058C000570708F494C002501109061B170B0193E7
:1058D00011936D937C93CF012ADF89C05B01A01ADD
:1058E000B10A4E01800E911EA0915508B091560844
:1058F000612C712C60E070E0109709F449C0A81584
:10590000B905C9F5ED90FC901197670142E0C40E0E
:10591000D11CCA14DB0478F147018A189B08640182
:1059200042E0C40ED11C1296BC9012971396AC9113
:10593000B5E0CB16D10440F0B282A383918280827D
:10594000D9018D939C9309C00E5F1F4F0E0D1F1D33
:10595000F90111830083EB2DFA2F6115710531F0E8
:10596000DB011396FC93EE93129741C0F093560817
:10597000E09355083CC06D917C91119766167706AF
:1059800008F43B01BD0112960D90BC91A02DB4CF3F
:10599000609153087091540868157905E9F4681608
:1059A0007906D0F440910002509101024115510551
:1059B00041F44DB75EB76091040270910502461B39
:1059C000570BE417F507A8F4F0935408E093530835
:1059D000F901918380830BC012DE7C01009749F0AE
:1059E000A801BE0117D0CE01A2DEC70104C0CE01BE
:1059F00002C080E090E0DF91CF911F910F91FF9066
:105A0000EF90DF90CF90BF90AF909F908F907F905E
:105A10006F900895FB01DC0102C001900D9241508E
:105A20005040D8F70895FB01DC0101900D92002051
:105A3000E1F70895FB01DC014150504048F001902E
:105A40000D920020C9F701C01D9241505040E0F76F
:105A500008954532510518F4423008F004C0FB01A6
:105A60001082CB010895BB274A3031F4992322F4E8
:105A7000BDE2909581959F4F3AC02532310518F4CB
:105A8000223008F004C0FA011082CA010895BB2731
:105A90002A3051F4992342F4BDE290958095709597
:105AA00061957F4F8F4F9F4F01C0BB27FA01A62FF3
:105AB0006217710581059105330B30FB66F0AA274B
:105AC000660F771F881F991FAA1FA21710F0A21B2D
:105AD00063953850A9F7A05DAA3308F0A95DA1939A
